{
  "contractName": "Counter",
  "abi": [
    {
      "inputs": [],
      "stateMutability": "nonpayable",
      "type": "constructor"
    },
    {
      "inputs": [],
      "name": "counter",
      "outputs": [
        {
          "internalType": "uint32",
          "name": "",
          "type": "uint32"
        }
      ],
      "stateMutability": "view",
      "type": "function",
      "constant": true
    },
    {
      "inputs": [],
      "name": "increment",
      "outputs": [],
      "stateMutability": "nonpayable",
      "type": "function"
    },
    {
      "inputs": [],
      "name": "getCounter",
      "outputs": [
        {
          "internalType": "uint256",
          "name": "",
          "type": "uint256"
        }
      ],
      "stateMutability": "view",
      "type": "function",
      "constant": true
    }
  ],
  "bytecode": "0x608060405234801561001057600080fd5b506000805463ffffffff191690556101478061002d6000396000f3fe608060405234801561001057600080fd5b50600436106100415760003560e01c806361bc221a146100465780638ada066e14610070578063d09de08a14610087575b600080fd5b6000546100569063ffffffff1681565b60405163ffffffff90911681526020015b60405180910390f35b60005463ffffffff16604051908152602001610067565b61008f610091565b005b6000805463ffffffff1690806100a6836100c7565b91906101000a81548163ffffffff021916908363ffffffff16021790555050565b600063ffffffff808316818103610107577f4e487b7100000000000000000000000000000000000000000000000000000000600052601160045260246000fd5b600101939250505056fea2646970667358221220d48e350d177f86478c97cca80d113a9e2c7b91222dfac5aa8d53d719b76e011764736f6c634300080d0033",
  "immutableReferences": {},
  "source": "pragma solidity ^0.8.13;\n\ncontract Counter {\n\n\tuint32 public counter;\n\n\tconstructor() {\n\t\tcounter = 0;\n\t}\n\n\tfunction increment() external {\n\t\tcounter++;\n\t}\n\n\tfunction getCounter() public view returns(uint) {\n\t\treturn counter;\n\t}\n}\n",
  "sourcePath": "/home/dtome/Workspace/blockchain/counter/contracts/Counter.sol",
  "compiler": {
    "name": "solc",
    "version": "0.8.13+commit.abaa5c0e.Emscripten.clang"
  },
  "schemaVersion": "3.4.14",
  "updatedAt": "2023-10-27T19:35:49.282Z",
  "networkType": "ethereum",
  "devdoc": {
    "kind": "dev",
    "methods": {},
    "version": 1
  },
  "userdoc": {
    "kind": "user",
    "methods": {},
    "version": 1
  }
}